:020000040800F2
:1000000000000820B933000809340008093400084A
:100010000934000809340008093400080000000011
:100020000000000000000000000000007130000827
:100030000934000800000000113100086D090008B3
:10004000093400080934000809340008093400089C
:10005000093400080934000809340008093400088C
:10006000093400080934000809340008093400087C
:10007000093400080934000809340008093400086C
:10008000093400080934000809340008093400085C
:10009000093400080934000809340008093400084C
:1000A000093400080934000809340008093400083C
:1000B000093400080934000809340008093400082C
:1000C000093400080934000809340008093400081C
:1000D000093400080934000809340008093400080C
:1000E00009340008093400080934000809340008FC
:1000F00009340008093400080934000809340008EC
:1001000009340008093400080934000809340008DB
:1001100009340008093400080934000809340008CB
:1001200009340008093400080934000809340008BB
:1001300009340008093400080934000809340008AB
:10014000093400080934000809340008093400089B
:10015000093400080934000809340008093400088B
:10016000093400080934000809340008093400087B
:1001700009340008093400080934000800000000B0
:10018000093400080934000809340008093400085B
:10019000093400080934000809340008093400084B
:1001A000093400080934000809340008093400083B
:1001B000093400080934000809340008093400082B
:1001C0000934000809340008000000000934000860
:1001D000093400080934000809340008093400080B
:1001E00009340008093400080934000809340008FB
:0801F00009340008093400087D
:1002000010B5054C237833B9044B13B10448AFF350
:1002100000800123237010BD1000002000000000AA
:100220005434000808B5034B1BB103490348AFF32E
:10023000008008BD000000001400002054340008B5
:1002400053B94AB9002908BF00281CBF4FF0FF313D
:100250004FF0FF3000F072B9ADF1080C6DE904CE3B
:1002600000F006F8DDF804E0DDE9022304B0704791
:100270002DE9F047089E04468846002B4BD18A4260
:10028000154667D9B2FA82F24AB1C2F1200701FAE3
:1002900002F320FA07F7954047EA030894404FEA33
:1002A000154E230CB8FBFEF71FFA85FC0EFB1788D2
:1002B00043EA084307FB0CF1994209D9EB1807F10F
:1002C000FF3080F01B81994240F21881023F2B449D
:1002D0005B1AA4B2B3FBFEF00EFB103344EA0344F6
:1002E00000FB0CFCA44509D92C1900F1FF3380F068
:1002F0000781A44540F2048102382C4440EA0740BB
:10030000A4EB0C0400271EB1D4400023C6E900432F
:100310003946BDE8F0878B4209D9002E00F0EB800A
:100320000027C6E9000138463946BDE8F087B3FA30
:1003300083F7002F47D18B4202D3824200F2FA802A
:10034000841A61EB030301209846002EE0D0C6E931
:100350000048DDE702B9FFDEB2FA82F2002A40F07F
:100360008F80491B4FEA154E1FFA85F80127B1FB14
:10037000FEFC230C0EFB1C1143EA014308FB0CF1AD
:10038000994207D9EB180CF1FF3002D2994200F2E2
:10039000CD808446591AA3B2B1FBFEF00EFB1014B7
:1003A00043EA044408FB00F8A04507D92C1900F1E2
:1003B000FF3302D2A04500F2B6801846A4EB080431
:1003C00040EA0C409FE7C7F1200CBB4022FA0CFE2C
:1003D0004EEA030E01FA07F420FA0CF521FA0CF3A9
:1003E0004FEA1E482543B3FBF8F92C0C08FB1933E0
:1003F0001FFA8EFA44EA034309FB0AF49C4202FA0C
:1004000007F200FA07F10BD91EEB030309F1FF30E5
:1004100080F087809C4240F28480A9F102097344F5
:100420001B1BADB2B3FBF8F008FB103345EA0344E5
:1004300000FB0AFAA24508D91EEB040400F1FF33C1
:100440006BD2A24569D90238744440EA0940A0FB46
:100450000289A4EB0A044C45C2464B4654D351D002
:10046000002E69D0B1EB0A0564EB030404FA0CFC1E
:10047000FD40FC404CEA0505C6E90054002747E76B
:10048000C2F1200320FA03F7954001FA02F021FAA5
:1004900003F34FEA154E3843010CB3FBFEF71FFA86
:1004A00085F80EFB173341EA034107FB08F38B4243
:1004B00004FA02F407D9691807F1FF3C2FD28B42E6
:1004C0002DD9023F2944CB1A81B2B3FBFEF00EFBBB
:1004D000103341EA034100FB08F38B4207D9691846
:1004E00000F1FF3C17D28B4215D902382944C91AB2
:1004F00040EA07473BE73746304609E70746E7E665
:100500001846FBE64145ABD2B8EB020A69EB0E0296
:1005100001381346A4E76046E9E7184695E76746C1
:10052000D1E781467CE702382C4447E7ACF1020C66
:100530002B442FE7384608E73746E9E6704700BF07
:1005400000B583B01348144B0360012343600023BC
:1005500003828DF8003080228DF80120E1228DF891
:1005600002208DF803308DF804308DF80530C0F886
:1005700014D08361C3614FF40003036200F0A0FC58
:1005800010B903B05DF804FB5621044800F0FAF8F6
:10059000F7E700BF703D002000800240983400085B
:1005A0000268294B9A4200D07047F0B589B0A3F594
:1005B00090431A6B42F000721A631A6B02F00072D9
:1005C0000092009A1A6B42F080621A631A6B02F072
:1005D00080620192019A1A6B42F000621A631B6BEF
:1005E00003F000630293029B3223039302270497D4
:1005F00000260596032506950B24079403A91348A6
:1006000000F088FD862303930497059606950794CA
:1006100003A90F4800F07EFD4FF4005303930497A5
:1006200005960695079403A90A4800F073FD4FF458
:1006300020530393049705960695079403A906484B
:1006400000F068FD09B0F0BD0080024000080240E3
:1006500000000240000402400018024008B50120DA
:1006600002F098F9FBE7000030B587B001AC064D09
:100670000FCD0FC42B682360002101A802F070F990
:10068000024B186007B030BD6C340008B83D002044
:10069000F0B58DB0364B1A6B42F004021A631A6B38
:1006A00002F004020192019A1A6B42F080021A636E
:1006B0001A6B02F080020292029A1A6B42F0010257
:1006C0001A631A6B02F001020392039A1A6B42F04A
:1006D00002021A631A6B02F002020492049A1A6B65
:1006E00042F008021A631A6B02F008020592059A9A
:1006F0001A6B42F040021A631B6B03F0400306932F
:10070000069B1C4F002244F28101384600F0F2FDA6
:10071000194D00224021284600F0ECFD4FF4005313
:100720000793164B08930024099407A9144800F076
:10073000F1FC44F2810307930126089609940A9478
:1007400007A9384600F0E6FC402307930896099471
:100750000A9407A9284600F0DDFC8023079308943B
:10076000099407A9284600F0D5FC0DB0F0BD00BFE4
:10077000003802400004024000180240000011103E
:1007800000080240FEE7000000B5B9B0344B1A6C17
:1007900042F080521A641B6C03F080530093009B5C
:1007A000304B1A6842F440421A601B6803F440431D
:1007B0000193019B01232B934FF4A0232C9302233D
:1007C00031934FF48002329204223392D822349231
:1007D0003593092336932BA800F06AFE80BB00F006
:1007E00029FE88BB0F2326930223279300232893F7
:1007F0004FF4A05329934FF480532A93072126A83E
:1008000001F0ACF820BB184B029300231593219301
:1008100002A801F07BF9F8B901F052F9134BA3FBE0
:100820000030800900F00CFA042000F01FFA0022CA
:100830000F214FF0FF3000F0D1F939B05DF804FB23
:10084000AF210B48FFF79EFFB6210948FFF79AFF3B
:10085000C4210748FFF796FFCC210548FFF792FF18
:10086000003802400070004000012000D34D6210AB
:10087000B834000808B500F06DF9FFF785FFFFF701
:1008800007FFFFF75DFE00F09FF800F0E5F8124C5F
:100890008021204600F034FD4FF47A7000F078F9A2
:1008A0008021204600F02CFD4FF47A7000F070F9A2
:1008B0008021204600F024FD4FF47A7000F068F9A2
:1008C000FFF7D2FE0121044800F01AFD4FF47A70C0
:1008D00000F05EF9F6E700BF0004024000B583B007
:1008E000214B1A6C42F080521A641A6C02F080524A
:1008F0000092009A5A6C42F480425A645B6C03F492
:1009000080430193019B032000F056F90022114619
:100910006FF00B0000F062F9002211466FF00A0040
:1009200000F05CF9002211466FF0090000F056F962
:10093000002211466FF0040000F050F90022114629
:100940006FF0030000F04AF900220F216FF0010060
:1009500000F044F900220F214FF0FF3000F03EF983
:1009600003B05DF804FB00BF0038024008B500F09A
:10097000FDF802F018F808BD10B40F4AD2F888301C
:1009800043F47003C2F888300C4B196841F0010140
:100990001960002098601C680949214019600949C4
:1009A0005960196821F480211960D8604FF0006304
:1009B00093605DF8044B704700ED00E000380240A2
:1009C000FFFFF6FE1030002408B50C480C4B036006
:1009D0004FF4E133436000238360C36003610C2262
:1009E00042618361C3610362436201F0FAFD00B9B1
:1009F00008BD4E210348FFF7C5FEF9E7BC3D0020C6
:100A000000480040CC3400080268114B9A4200D0E4
:100A1000704700B587B003F5F8331A6C42F48022B2
:100A20001A641B6C03F480230093009B4FF4407303
:100A300001930223029300230393032304930723C8
:100A4000059301A9034800F065FB07B05DF804FBBE
:100A500000480040000C024008B50D484FF0A0438C
:100A60000360062343600222C260002303614361E6
:100A700082610122C26103624362C262036300F0C9
:100A800043FC00B908BD4F210248FFF77BFEF9E7A0
:100A90002C3E0020E03400080368B3F1A04F00D0E2
:100AA000704730B589B04FF4E853039302230493A1
:100AB00000240594032306930A230793114D03A9E9
:100AC000284600F027FB4FF4007303930494059429
:100AD00003A9284600F01EFB0B4B5A6B42F0800224
:100AE0005A635A6B02F080020192019A5A6C42F4E6
:100AF00080425A645B6C03F480430293029B09B00A
:100B000030BD00BF000002400038024010B504466E
:100B10000E4B18784FF47A73B3FBF0F30C4A10685D
:100B2000B0FBF3F000F08CF868B90F2C01D901206C
:100B30000AE0002221464FF0FF3000F04FF8034B4F
:100B40005C60002000E0012010BD00BF0400002018
:100B50000000002008B5032000F02EF80F20FFF75A
:100B6000D5FFFFF7BBFE002008BD0000034A116857
:100B7000034B1B780B441360704700BF2C420020CE
:100B800004000020014B1868704700BF2C42002071
:100B900038B50446FFF7F6FF0546B4F1FF3F02D033
:100BA000044B1B781C44FFF7EDFF401BA042FAD317
:100BB00038BD00BF040000200649CB6823F4E06381
:100BC0001B041B0C000200F4E0600343024A1A43BA
:100BD000CA60704700ED00E00000FA0530B4154B24
:100BE000DB68C3F30223C3F10704042C28BF0424E9
:100BF0001D1D062D14D9033B4FF0FF3505FA04F4F3
:100C000021EA0401994005FA03F322EA0303194398
:100C1000002807DB0901C9B2074B195430BC7047E3
:100C20000023E9E700F00F000901C9B2034B195492
:100C3000F4E700BF00ED00E000E400E014ED00E0A8
:100C40000138B0F1807F0AD2064B5860064AF02185
:100C500082F823100020986007221A607047012054
:100C6000704700BF10E000E000ED00E0042805D070
:100C7000054A136823F0040313607047024A13689F
:100C800043F004031360704710E000E050791379DB
:100C900043EA002307480B50D07893781B0443EABB
:100CA0000063507843EA002312781343024A8B50C2
:100CB000704700BF408002404480024070B59EB043
:100CC000044629B14FF40063C3604FF4804383604E
:100CD000E369002B68D14FF48063079321680B68A8
:100CE000374A1A40A368E06803430798034343F474
:100CF000007313430B6023681D680120FFF748FF52
:100D000023681D60236840225A6023685D680120C3
:100D1000FFF73EFF23685D60236800259D60236820
:100D2000DD602268936923F0BE031B041B0C43F0B3
:100D30008003936123689E690120FFF729FF2368E0
:100D40009E612368DD612368DD690120FFF720FFD4
:100D50002368DD61216841F218054B59194A1A4090
:100D6000194B13434B5123685E590120FFF710FFC5
:100D700023685E51236803F58053144A1A60236880
:100D800003F580531D680120FFF702FF236803F578
:100D900080531D60A369012B09D0626900212046A0
:100DA000FFF774FF1EB070BD0023079396E721681C
:100DB00041F21C028858064B03438B50EDE700BFFD
:100DC0000F8120FF233FDEF8040020028020C102B3
:100DD00040000100F8B590F84430DBB2822B33D0EC
:100DE00016460546822380F844300268136903F0F2
:100DF0001C03048AE402A4B223438C0104F4F864C3
:100E00001C4344F001041461FFF7BCFE074614F0D4
:100E1000010F10D0FFF7B6FEC01BB0F5803F02D225
:100E20002B681C69F3E7012385F84430002385F81B
:100E30004530032007E02B685B699BB233600123D8
:100E400085F844300020F8BD0220FCE790F84430DB
:100E5000DBB2422B32D070B50546422380F84430D5
:100E60000068036903F01C032C8AE402A4B2234344
:100E70008C0104F4F8641C4344F0030492B2426110
:100E80002B681C61FFF77EFE064614F0010F10D0A0
:100E9000FFF778FE801BB0F5803F02D22B681C69FB
:100EA000F3E7012385F84430002385F8453003201B
:100EB00003E0012385F84430002070BD0220704714
:100EC00070B582B000230193002800F00C81044625
:100ED00090F84430002B32D0844B5A6C42F480425C
:100EE0005A645B6C03F480430093009B804B5A6808
:100EF00022F400025A605A68216A0A435A60236841
:100F000003F580531A6842F001021A60FFF73AFEB7
:100F10000546236803F58052126812F0010F13D0C2
:100F2000FFF730FE401BB0F5FA7FF2D9032584F8B5
:100F30004450002384F84530284602B070BD80F844
:100F40004530FFF72DFBC7E71D6925F01C0500F0B4
:100F5000B7FD684B0344684A934255D845F00805ED
:100F600023681D614FF4004200212046FFF76EFF09
:100F70000546002860D1FF20FFF70AFE6368002BBA
:100F800000F09180FFF7FEFD064601AA01212046F0
:100F9000FFF720FFFFF7F6FD801B41F288339842F0
:100FA00052D8019B13F0040FEFD04FF48052002170
:100FB0002046FFF74BFF002852D1FFF7E3FD06461E
:100FC00001AA01212046FFF705FFFFF7DBFD801B8B
:100FD00041F2883398424BD8019B13F0200FEFD099
:100FE00001AA10212046FFF7F5FE00284CD1019BF5
:100FF00013F0040F50D04FF40062E26013F0020FC0
:101000004DD00023A3605EE03C4B03443C4A934236
:1010100002D845F00C05A3E73A4B03443A4A934201
:101020009ED93A4B03443A4A934202D845F004050C
:1010300096E745F0100593E701212046FFF73EFEB5
:10104000012584F8445077E701212046FFF736FE5A
:10105000012384F84430002384F8453003256BE7EE
:1010600001212046FFF72AFE012584F8445063E75A
:1010700001212046FFF722FE012384F8443000239B
:1010800084F84530032557E701212046FFF716FE77
:10109000012584F844504FE70022E260AEE74FF4A8
:1010A0008043A3600FE0E268C2F3CF02A368C3F3FA
:1010B0004F031A4300212046FFF7C8FE58B940F6F7
:1010C000FF70FFF765FD00212046FFF7F7FD0123C4
:1010D00084F8443030E701212046FFF7EFFD012579
:1010E00084F8445028E7012526E700BF0038024075
:1010F0000038014000D3CEFEBFE1E40040F1E9FD3D
:101100003F787D0100796CFCFF596202001F0AFAEA
:101110007FF0FA0200230F2B00F2E280F0B482B0DD
:1011200039E0092200E00022B2403A4302346D4E19
:1011300046F824206C4A1468EA4302EA04064F6821
:1011400017F4803F01D045EA0406674C26606468C6
:1011500002EA04064F6817F4003F01D045EA04068E
:10116000614C6660A46802EA04064F6817F4801FA9
:1011700001D045EA04065C4CA660E46822404E6853
:1011800016F4001F01D045EA0402574CE260013317
:101190000F2B00F2A28001229A400C6804EA02059B
:1011A000AA42F4D14C68122C18BF022C10D1DE08D0
:1011B000083650F826C003F00704A7000F24BC40EF
:1011C0002CEA040C0C69BC4044EA0C0440F82640AC
:1011D00004685F000326BE40F64306EA040C4C6830
:1011E00004F00304BC4044EA0C0404604C6804F1BD
:1011F000FF3C112C18BFBCF1010F01D9122C11D1E9
:10120000846806EA040CCC68BC4044EA0C048460A0
:10121000446824EA020C4C68C4F300129A4042EA83
:101220000C024260C26816408A68BA403243C2600B
:101230004A6812F0805FAAD02C4A546C44F480446F
:101240005464526C02F480420192019A9C08A61CDC
:10125000244A52F8267003F0030296000F22B2408F
:1012600027EA0207224A90423FF45DAF02F580620E
:10127000904222D002F58062904220D002F5806236
:1012800090421ED002F5806290421CD002F580622E
:1012900090421AD002F58062904218D002F5806226
:1012A000904216D002F58062904214D002F580621E
:1012B00090423FF436AF0A2236E7012234E7022299
:1012C00032E7032230E704222EE705222CE706222C
:1012D0002AE7072228E7082226E702B0F0BC704779
:1012E000704700BF00380140003C01400038024018
:1012F0000000024012B909048161704781617047A2
:10130000436959404161704700287DD0F0B58BB0EA
:10131000044690F8BD33E3B1032384F8BD3320685D
:1013200001F0EEF9254655F8107B6E460FCD0FC63D
:101330000FCD0FC695E8030086E80300231D0ECBF2
:10134000384601F09FF90021206801F0DFF9002301
:101350001AE080F8BC33FFF79FFBDDE7D900C81A1D
:1013600082002244012082F83D0082F83C30A2F83D
:101370004230002082F83F0050649064CA1A910005
:10138000214408650133DBB20E2BE7D9002315E0B9
:10139000D800C11A8A002244002182F8FD1182F887
:1013A000FC3182F8FF11C2F80412C2F80812C21A06
:1013B00090002044C0F810120133DBB20E2BE7D9A5
:1013C000254655F8107B6E460FCD0FC60FCD0FC6C4
:1013D00095E8030086E80300231D0ECB384601F094
:1013E000DBF9002384F83830012384F8BD33636AC5
:1013F000012B05D0206801F0A1FA00200BB0F0BD50
:10140000204600F003F8F5E7012070470246036824
:101410000121C0F8F813002082F8F0039A6942F025
:1014200000629A61596D024A0A435A65704700BFCB
:101430000300001010B582B01B4B1A6C42F08052B2
:101440001A641B6C03F080530193019B174A1368C5
:1014500043F480331360FFF795FB0446134B5B683E
:1014600013F4803F08D1FFF78DFB001BB0F57A7FA6
:10147000F4D9032002B010BD0C4A136843F40033C2
:101480001360FFF77FFB0446084B5B6813F4003FD3
:1014900007D1FFF777FB001BB0F57A7FF4D9032063
:1014A000E8E70020E6E700BF003802400070004097
:1014B000002800F0DC8170B582B00446036813F0A8
:1014C000010F29D0A24B9B6803F00C03042B1AD008
:1014D0009F4B9B6803F00C03082B0FD06368B3F598
:1014E000803F40D0002B54D1994B1A6822F48032AF
:1014F0001A601A6822F480221A6039E0944B5B6803
:1015000013F4800FEAD0924B1B6813F4003F03D012
:101510006368002B00F0AD81236813F0020F75D0D3
:101520008B4B9B6813F00C0F5ED0894B9B6803F0CC
:101530000C03082B53D0E368002B00F08A80844A08
:10154000136843F001031360FFF71CFB0546804B53
:101550001B6813F0020F73D1FFF714FB401B022826
:10156000F5D9032088E17A4A136843F48033136085
:1015700063682BB3FFF706FB0546754B1B6813F436
:10158000003FC9D1FFF7FEFA401B6428F5D90320BC
:1015900072E1B3F5A02F09D06D4B1A6822F48032A6
:1015A0001A601A6822F480221A60E1E7684B1A6810
:1015B00042F480221A601A6842F480321A60D7E737
:1015C000FFF7E0FA0546624B1B6813F4003FA3D017
:1015D000FFF7D8FA401B6428F5D903204CE15C4B97
:1015E0005B6813F4800FA6D1594B1B6813F0020FF0
:1015F00004D0E368012B01D001203DE1544A136877
:1016000023F0F803216943EAC1031360236813F050
:10161000080F46D0636983B34D4A536F43F001030B
:101620005367FFF7AFFA0546494B5B6F13F0020FA4
:1016300037D1FFF7A7FA401B0228F5D903201BE199
:10164000434A136823F0F803216943EAC103136096
:10165000DCE73F4A136823F001031360FFF792FAB7
:1016600005463B4B1B6813F0020FCFD0FFF78AFAF9
:10167000401B0228F5D90320FEE0354A536F23F0C2
:1016800001035367FFF77EFA0546314B5B6F13F09A
:10169000020F06D0FFF776FA401B0228F5D9032087
:1016A000EAE0236813F0040F7ED0294B1B6C13F083
:1016B000805F1ED1264B1A6C42F080521A641B6C5C
:1016C00003F080530193019B0125224B1B6813F407
:1016D000807F10D0A368012B21D0002B3CD11C4B64
:1016E0001A6F22F001021A671A6F22F004021A67B9
:1016F0001AE00025E9E7174A136843F48073136082
:10170000FFF740FA0646134B1B6813F4807FE1D1C4
:10171000FFF738FA801B6428F5D90320ACE00C4AA7
:10172000136F43F001031367A3685BB3FFF72AFA53
:101730000646074B1B6F13F0020F34D1FFF722FA56
:10174000801B41F288339842F3D9032094E000BF14
:101750000038024000700040052B09D0484B1A6F3A
:1017600022F001021A671A6F22F004021A67DBE7FF
:10177000434B1A6F42F004021A671A6F42F00102DB
:101780001A67D1E7FFF7FEF906463D4B1B6F13F0D2
:10179000020F08D0FFF7F6F9801B41F28833984218
:1017A000F3D9032068E0F5B9A369002B63D0344A6C
:1017B000926802F00C02082A60D0022B19D0304A3D
:1017C000136823F080731360FFF7DCF904462C4B99
:1017D0001B6813F0007F48D0FFF7D4F9001B0228E4
:1017E000F5D9032048E0264A136C23F08053136494
:1017F000DAE7234A136823F080731360FFF7C2F916
:1018000005461F4B1B6813F0007F06D0FFF7BAF99F
:10181000401B0228F5D903202EE0E369226A134316
:10182000626A43EA8213A26A5208013A43EA024317
:10183000E26A43EA0263226B43EA0273104A53608E
:10184000136843F080731360FFF79CF904460C4B58
:101850001B6813F0007F06D1FFF794F9001B0228E4
:10186000F5D9032008E0002006E0002004E0012074
:101870007047012000E0002002B070BD0120FBE7AE
:1018800000380240324B9B6803F00C03042B5CD001
:10189000082B01D02F4870472DE9F04B2C4B5A688C
:1018A00002F03F025B6813F4800F2BD0284B5B687B
:1018B000C3F388131E4600275C010025E41A65EB7C
:1018C0000705A90141EA9461A001001B61EB050134
:1018D000CB0043EA5073C400A01943EB07014B024D
:1018E00043EAD0534402204619460023FEF7A8FCE1
:1018F000174B5B68C3F3014301335B00B0FBF3F0AC
:10190000BDE8F08B124B5B68C3F388131E460027BB
:101910005C010025E41A65EB0705A90141EA946121
:10192000A001001B61EB0501CB0043EA5073C4002A
:10193000A01943EB07018B0243EA9053840220462F
:1019400019460023FEF77CFCD2E70348704700BF2E
:10195000003802400024F40000127A00002800F051
:10196000A28070B50446524B1B6803F00F038B42F4
:101970000CD24F4A136823F00F030B431360136814
:1019800003F00F038B4201D0012070BD236813F0D8
:10199000020F17D013F0040F04D0464A936843F4A3
:1019A000E0539360236813F0080F04D0414A936812
:1019B00043F4604393603F4A936823F0F003A068C8
:1019C000034393600D46236813F0010F31D0636821
:1019D000012B20D0022B25D0364A126812F0020FBC
:1019E00063D034498A6822F0030213438B60FFF707
:1019F000C9F806462F4B9B6803F00C036268B3EBF3
:101A0000820F16D0FFF7BEF8801B41F28833984250
:101A1000F0D90320B9E7274A126812F4003FE0D159
:101A20000120B2E7234A126812F0007FD9D10120C9
:101A3000ABE71F4B1B6803F00F03AB420CD91C4AEA
:101A4000136823F00F032B431360136803F00F0395
:101A5000AB4201D0012098E7236813F0040F06D0B1
:101A6000144A936823F4E053E1680B4393602368BE
:101A700013F0080F07D00F4A936823F460432169DD
:101A800043EAC1039360FFF7FDFE0A4B9B68C3F373
:101A90000313094AD35CD840084B18600F20FFF7A6
:101AA00035F8002071E70120704701206DE700BF85
:101AB000003C024000380240803400080000002052
:101AC000014B1868704700BF0000002008B5FFF701
:101AD000F7FF044B9B68C3F38223034AD35CD840CF
:101AE00008BD00BF003802409034000808B5FFF779
:101AF000E7FF044B9B68C3F34233034AD35CD840EF
:101B000008BD00BF0038024090340008F0B583B033
:101B10000446036813F0010F0CD0B54B9A6822F409
:101B200000029A609A68416B0A439A60436BC3B1A2
:101B3000002600E00026236813F4002F15D0AC4ADD
:101B4000D2F88C3023F44013E16B0B43C2F88C3095
:101B5000E36BB3F5801F06D0002B00F04581002514
:101B600004E00126E7E70126F6E70025236813F4E1
:101B7000801F0FD09E4AD2F88C3023F44003216C92
:101B80000B43C2F88C30236CB3F5800F00F02E812C
:101B900003B90125236813F0807F00D0012613F0DC
:101BA000200F40F02781236813F0100F0CD0904BCA
:101BB000D3F88C2022F08072C3F88C20D3F88C20CC
:101BC000A16B0A43C3F88C20236813F4804F08D01C
:101BD000874AD2F8903023F44033616E0B43C2F849
:101BE0009030236813F4004F08D0814AD2F8903027
:101BF00023F44023A16E0B43C2F89030236813F402
:101C0000803F08D07A4AD2F8903023F44013E16E36
:101C10000B43C2F89030236813F4003F08D0744A95
:101C2000D2F8903023F44003216F0B43C2F8903078
:101C3000236813F0400F08D06D4AD2F8903023F09B
:101C40000303616C0B43C2F89030236813F0800FDC
:101C500008D0674AD2F8903023F00C03A16C0B43F4
:101C6000C2F89030236813F4807F08D0604AD2F81D
:101C7000903023F03003E16C0B43C2F890302368BE
:101C800013F4007F08D05A4AD2F8903023F0C003F2
:101C9000216D0B43C2F89030236813F4806F08D095
:101CA000534AD2F8903023F44073616D0B43C2F86D
:101CB0009030236813F4006F08D04D4AD2F890306A
:101CC00023F44063A16D0B43C2F89030236813F4F2
:101CD000805F08D0464AD2F8903023F44053E16D3B
:101CE0000B43C2F89030236813F4005F08D0404AD9
:101CF000D2F8903023F44043216E0B43C2F8903069
:101D0000236813F4800F08D0394AD2F8903023F0BA
:101D10008063A16F0B43C2F89030236813F4001F57
:101D20000DD0334AD2F8903023F00063E16F0B43BB
:101D3000C2F89030E36FB3F1006F00F0C180236808
:101D400013F0080F00D0012513F4802F08D0284A83
:101D5000D2F8903023F04073616F0B43C2F890309B
:101D6000236813F4000F09D0214AD2F8903023F0F1
:101D70008053D4F880100B43C2F89030236813F0DE
:101D8000806F09D01A4AD2F8903023F00053D4F86B
:101D900084100B43C2F89030236813F0006F09D011
:101DA000134AD2F88C3023F00073D4F888100B4318
:101DB000C2F88C30236813F0805F09D00C4AD2F847
:101DC0008C3023F08063D4F88C100B43C2F88C3035
:101DD000002E77D12368B3F1007F73D0002D40F03F
:101DE0000481002003B0F0BD0125BFE60126CFE647
:101DF00000380240B74B1A6C42F080521A641B6CD8
:101E000003F080530193019BB34A136843F480733A
:101E10001360FEF7B7FE0746AF4B1B6813F4807FD5
:101E200006D1FEF7AFFEC01B6428F5D90320D9E721
:101E3000A84B1B6F13F4407315D0226B02F4407251
:101E40009A4210D0A34B1A6F22F44072196F41F4DA
:101E500080311967196F21F4803119671A671B6F78
:101E600013F0010F12D1236B03F44072B2F5407FDF
:101E70001DD0984A936823F4F813936095490B6F2B
:101E8000226BC2F30B0213430B678CE6FEF77AFE5C
:101E90000746904B1B6F13F0020FE4D1FEF772FE62
:101EA000C01B41F288339842F3D903209AE789484E
:101EB000826822F4F812894919400A438260DDE7FA
:101EC00001253CE7834A136823F080631360FEF723
:101ED00059FE06467F4B1B6813F0006F06D0FEF7D5
:101EE00051FE801B6428F5D903207BE7236813F09B
:101EF000010F13D0636B8BB9764AD2F88430D2F8D5
:101F00008410606803F4403343EA801301F0706189
:101F10000B43A16843EA0173C2F88430236813F4C9
:101F2000002F03D0E26BB2F5801F06D013F4801FA0
:101F30001ED0236CB3F5800F1AD1664AD2F88430D4
:101F4000D2F88410606803F4403343EA8013E068F9
:101F500043EA006301F0E0410B43C2F88430D2F859
:101F60008C3023F01F03616A01390B43C2F88C30B7
:101F7000236813F0807F11D0564AD2F88400D2F83B
:101F80008410666823691B0443EA861300F07060BE
:101F9000034301F0E0410B43C2F88430236813F09F
:101FA000007F0DD0626823691B0443EA8213E26854
:101FB00043EA0263A26843EA0273464AC2F88430E5
:101FC000444A136843F080631360FEF7DBFD064666
:101FD000404B1B6813F0006F7FF400AFFEF7D2FD9B
:101FE000801B6428F4D90320FCE63A4A136823F0E6
:101FF00080531360FEF7C6FD0546364B1B6813F091
:10200000005F06D0FEF7BEFD401B6428F5D9032013
:10201000E8E6236813F4002F01D0E26B22B113F439
:10202000801F1DD0236CDBB92A4AD2F88830D2F841
:102030008810606903F4403343EA8013A06943EADF
:10204000006301F0E0410B43C2F88830D2F88C30D5
:1020500023F4F853A16A013943EA0123C2F88C3012
:10206000236813F4001F03D0E36FB3F1006F37D080
:10207000236813F0080F19D0164AD2F88810D2F846
:102080008830606903F4403343EA801301F07061E3
:102090000B43E16943EA0173C2F88830D2F88C300F
:1020A00023F44033E16A0B43C2F88C30094A1368C9
:1020B00043F080531360FEF765FD0446054B1B6833
:1020C00013F0005F1FD1FEF75DFD001B6428F5D9FA
:1020D000032087E60038024000700040FFFCFF0F3D
:1020E0000A4AD2F88800D2F888106569236A1B046E
:1020F00043EA851300F07060034301F0E0410B43B5
:10210000C2F88830B4E700206CE600BF0038024017
:102110002DE9F04105460F4616469846069C2B6869
:10212000DB6937EA03030CBF01230023B3421DD14F
:10213000B4F1FF3FF3D02CB1FEF724FDA0EB080073
:10214000A042ECD32A68136823F4D07313602A6882
:10215000936823F001039360202385F8693085F8A4
:102160006A30002385F86830032000E00020BDE8D5
:10217000F081000010B50446836802691343426988
:102180001343C2691343016808689D4A0240134320
:102190000B602268536823F44053E1680B4353609B
:1021A000A369226A1A4321688B6823F430631343BE
:1021B0008B602368934A934219D0934A93422AD062
:1021C000924A934240D0924A934255D0914A9342C8
:1021D0006AD0914A934200F08280904A934200F084
:1021E00099808F4A934200F0B0801022C9E002F536
:1021F0009432D2F8902002F00302032A03D8DFE8D9
:1022000002F0BF0604081022BBE00222B9E004225B
:10221000B7E00822B5E002F5FA32D2F8902002F0D9
:102220000C020C2A08D8DFE802F0BA0707070B07F0
:102230000707090707070D001022A2E00222A0E00D
:1022400004229EE008229CE002F5F832D2F89020A9
:1022500002F03002102A0DD005D9202A08D0302AE9
:1022600004D108228DE00AB900228AE0102288E019
:10227000022286E0042284E002F5F632D2F89020B1
:1022800002F0C002402A0DD005D9802A08D0C02A09
:1022900004D1082275E00AB9002272E0102270E031
:1022A00002226EE004226CE002F5F432D2F89020B3
:1022B00002F44072B2F5807F0FD007D9B2F5007FEB
:1022C00009D0B2F5407F04D108225AE00AB90022B1
:1022D00057E0102255E0022253E0042251E002F5BB
:1022E0009232D2F8902002F44062B2F5806F0FD0A3
:1022F00007D9B2F5006F09D0B2F5406F04D10822BA
:102300003FE00AB901223CE010223AE0022238E024
:10231000042236E002F5E032D2F8902002F4405276
:10232000B2F5805F0FD007D9B2F5005F09D0B2F5E2
:10233000405F04D1082224E00AB9002221E01022E3
:102340001FE002221DE004221BE002F5DE32D2F87B
:10235000902002F44042B2F5804F0FD007D9B2F579
:10236000004F09D0B2F5404F04D1082209E00AB964
:10237000002206E0102204E0022202E0042200E033
:102380000122E169B1F5004F0BD0082A00F29B80D1
:10239000DFE802F0616D7999839999998F000022A5
:1023A000EFE7082A54D8DFE802F0051722533F531D
:1023B00053534A00FFF78AFB6268530803EB40035C
:1023C000B3FBF2F39BB2002023F00F02C3F34203EE
:1023D00013432268D36010BDFFF788FB626853087F
:1023E00003EB4003B3FBF2F39BB20020ECE762681F
:1023F0000C4B03EB5203B3FBF2F39BB20020E3E779
:10240000F369FFEF00100140004400400048004025
:10241000004C004000500040001401400078004093
:10242000007C00400048E801FFF72CFA626853087E
:1024300003EB4003B3FBF2F39BB20020C4E76268F6
:10244000530803F58033B3FBF2F39BB20020BBE7E4
:1024500001200023B8E7FFF739FB636800EB530066
:10246000B0FBF3F0236880B2D8600020B3E7FFF739
:102470003DFB636800EB5300B0FBF3F0236880B2D0
:10248000D8600020A7E76168104A02EB5102B2FB56
:10249000F1F292B2DA6000209DE7FFF7F3F963688A
:1024A00000EB5300B0FBF3F0236880B2D86000204B
:1024B00091E761684A0802F50042B2FBF1F292B27C
:1024C000DA60002087E7012085E700BF0024F400E0
:1024D000436A13F0010F06D00268536823F40033F7
:1024E000816A0B435360436A13F0020F06D00268FF
:1024F000536823F48033C16A0B435360436A13F07B
:10250000040F06D00268536823F48023016B0B4349
:102510005360436A13F0080F06D00268536823F42F
:102520000043416B0B435360436A13F0100F06D016
:102530000268936823F48053816B0B439360436A72
:1025400013F0200F06D00268936823F40053C16B88
:102550000B439360436A13F0400F0AD0026853683C
:1025600023F48013016C0B435360036CB3F5801F9D
:102570000BD0436A13F0800F06D00268536823F42F
:102580000023816C0B43536070470268536823F447
:10259000C003416C0B435360EBE710B582B00446B7
:1025A0000023C366FEF7EEFA2268126812F0080FE5
:1025B00009D1202384F8693084F86A30002084F837
:1025C000680002B010BD6FF07E4300930346002206
:1025D0004FF400112046FFF79BFD0028E9D00320AF
:1025E000EFE778B310B5044690F869300BB32423B5
:1025F00084F869302268136823F0010313602046D1
:10260000FFF7B8FD012813D0636ABBB9226853688D
:1026100023F4904353602268936823F02A03936065
:102620002268136843F0010313602046FFF7B5FFEB
:1026300010BD80F86830FEF7E7F9D8E72046FFF7CD
:1026400047FFE3E701207047002301330C4A934220
:1026500011D80269002AF8DA036943F00103036123
:1026600000230133064A934207D8026912F0010F92
:10267000F7D100207047032070470320704700BF48
:10268000400D030084B010B5044603A880E80E0096
:10269000089B012B1ED1A36B23F48033A363E26854
:1026A000164B1340E360E36823F44013E3600F9B91
:1026B000012B0AD02046FFF7C7FF069B012B14D041
:1026C0000020BDE8104004B07047E36843F4801375
:1026D000E360EFE7E36843F04003E3602046FFF781
:1026E000B3FF4FF48033A363E7E7A36843F0060327
:1026F000A360A36843F02003A360E1E7BFFFBDFF31
:10270000836823F0010383600020704708B5C36825
:1027100023F0C043C360012909D069B9C36843F0FD
:102720008043C3603220FEF733FA002008BDC3683F
:1027300043F00053C360F5E70120F7E7890141F05A
:102740002001016100230133054A934205D8026943
:1027500012F0200FF7D1002070470320704700BF10
:10276000400D03001023036100230133054A934207
:1027700005D8026912F0100FF7D10020704703202E
:10278000704700BF400D0300D0F800381943C0F86F
:10279000001800207047000084B0F8B5044607A870
:1027A00080E80E002546002306E003F1400204EB1A
:1027B00082020021516001330E2BF6D9A36B43F442
:1027C0000013A363119F5FB9A36B23F40013A363EA
:1027D000236843F040032360236843F080032360B1
:1027E0000023C4F8003E04F50066D4F80038C4F8AD
:1027F00000380C9B012B08D0032B17D1099B83B900
:1028000000212046FFF7C0FF14E0099B23B90021F7
:102810002046FFF7B9FF0DE001212046FFF7B4FF86
:1028200008E001212046FFF7AFFF03E00321204627
:10283000FFF7AAFF10212046FFF780FF2046FFF791
:1028400091FF002333617361F3610AE0C3B94FF074
:102850000060C2F8000900220A614FF67F328A60E8
:1028600001330799994210D905EB431202F5106123
:10287000D2F800090028E9DB0020C2F80009EAE7E5
:102880004FF09040C2F80009E5E700230AE0CBB121
:102890004FF0904CC2F800CB002202614FF67F321D
:1028A00082600133994212D905EB431202F5306080
:1028B000D2F800CBBCF1000FE9DB4FF0000CC2F8FE
:1028C00000CBE9E74FF0006CC2F800CBE4E73369D6
:1028D00023F4807333610A9B012B1AD00022A2617A
:1028E0006FF0804262611BB9A36943F01003A361DA
:1028F000A2690E4B1343A3610D9B1BB1A36943F067
:102900000803A361012F0BD00020BDE8F84004B0FC
:102910007047074A3263316B064A0A433263DDE788
:10292000A269054B1343A361EEE700BF00383C806A
:1029300000018000030001000400004008B5D0F849
:10294000043843F00203C0F804380320FEF720F9EE
:10295000002008BD842801D0033070470020704754
:10296000F0B585B00F46446805680669B0F90800FF
:10297000FFF7F0FF03AB019300903B46B2B229464C
:10298000204600F07BF9012802D1039805B0F0BD84
:102990000020FBE708B5034600B90123184600F004
:1029A000ABFA002008BD08B500F018FB012801D0E3
:1029B00000F0E0FB08BD00F1080343604FF0FF3278
:1029C0008260C360036100230360704700230361DA
:1029D000704743684B609A688A609A685160996052
:1029E0000861036801330360704730B40D68B5F1C6
:1029F000FF3F02D000F1080202E0026904E01A463B
:102A000053681C68AC42FAD953684B6099608A607D
:102A10005160086103680133036030BC704703698B
:102A20004268816891608268416851605A68824258
:102A300005D000220261186801381860704782686A
:102A40005A60F6E7074B9B6A1B6833B1054B9A6ADD
:102A5000D268D2685268DA627047024B4FF0FF3298
:102A6000DA6270472C0000202DE9F0478046994635
:102A7000089D099F0A9C266B6FF04043134406EBA8
:102A8000830626F0070600230F2B07D8C85CE21840
:102A900082F83400CA5C0AB10133F5E7002384F8F8
:102AA0004330062D00D90625E56265644FF0000A23
:102AB000C4F848A0201DFFF789FF04F11800FFF7B4
:102AC00085FF2461C5F10705A5616462C4F84CA0C7
:102AD00084F850A04A464146304600F0ADFA2060E6
:102AE00007B13C60BDE8F08770B5002407E004EB57
:102AF0008402930010481844FFF75DFF0134062C50
:102B0000F5D90E4C04F1BC063046FFF754FF04F132
:102B1000D0052846FFF74FFF04F11400FFF74BFFE5
:102B200004F1E400FFF747FF2046FFF744FFA662E9
:102B3000C4F8F85070BD00BF5C0000202C000020DD
:102B400038B5054600F0A6FA264BD3F8FC20013232
:102B5000C3F8FC20D3F8003173B1224BD3F8043111
:102B60008BB9204BD3F80031DA6AEB6A9A420AD863
:102B70001C4BC3F8005106E01A4BC3F80051D3F8C0
:102B8000FC30012B2AD0174CD4F808310133C4F89B
:102B90000831EB6A01229A40D4F80C110A43C4F8B8
:102BA0000C2104F1300003EB83039A00291D10442B
:102BB000FFF70FFF00F094FAD4F804316BB1D4F8AA
:102BC0000031DA6AEB6A9A4207D2074B4FF0805223
:102BD0001A60BFF34F8FBFF36F8F38BDFFF784FFCD
:102BE000D1E700BF2C00002004ED00E070B50446E2
:102BF0000E46214BD3F81051D3F800010430FFF7F3
:102C00000EFF60B91C4BD3F80021D16A012202FAF1
:102C100001F1D3F80C2122EA0102C3F80C21B4F12E
:102C2000FF3F14BF00230123002E08BF002393B9E8
:102C30002C44114BD3F800315C60A54212D80E4DE4
:102C4000A86AD5F800110431FFF7CFFEEB6AA34262
:102C500010D9EC620EE00848D0F800110431FFF7FB
:102C6000B8FE07E0044BD3F8F800D3F800110431A4
:102C7000FFF7BBFE70BD00BF2C0000202DE9F04324
:102C800085B00746884615469946900000F0DAFA66
:102C9000F8B10646542000F0D5FA0446A8B1066300
:102CA000D4B10023039302940D9B01930C9B0093DA
:102CB0004B462A4641463846FFF7D6FE2046FFF7E8
:102CC0003FFF012005B0BDE8F083304600F03AFB3D
:102CD000E6E74FF0FF30F5E74FF0FF30F2E7000096
:102CE000034AD2F818310133C2F81831704700BFD7
:102CF0002C0000202DE9F041414BD3F81831002B76
:102D00006ED13F4BD3F810510135C3F81051DDB9E6
:102D10009B6A1B6853B14FF0500372B683F311885E
:102D2000BFF36F8FBFF34F8F62B6FEE7344B9A6AE3
:102D3000D3F8F8109962C3F8F820D3F820210132B3
:102D4000C3F82021FFF77EFE2D4BDB6AAB423DD955
:102D500000242B4AD2F80031DB6A03EB830399008D
:102D60000A44136B012B42D9012440E00124244B77
:102D70009B6A1B6863B3224B9B6ADB68DE687368DF
:102D80009D422AD306F104084046FFF748FEB36A85
:102D90001BB106F11800FFF742FEF36A01229A40C8
:102DA000174FD7F80C110A43C7F80C2107F1300070
:102DB00003EB83039A0041461044FFF70AFEF26AD0
:102DC000D7F80031DB6A9A42D0D2D0E70024CEE7B0
:102DD0000B4B4FF0FF32DA62BBE7094AD362B8E728
:102DE000074AD2F824310133C2F824310024044BBD
:102DF000D3F8283103B101242046BDE8F08100BF9B
:102E00002C0000203A4BD3F8183153B94FF050033F
:102E100072B683F31188BFF36F8FBFF34F8F62B623
:102E2000FEE770B500F036F9314BD3F81821013ABE
:102E3000C3F81821D3F81831002B54D12C4BD3F8F8
:102E4000FC3023B9002400F04BF9204670BD00246B
:102E5000274B5B692BB3264D2B6ADC6804F1180005
:102E6000FFF7DDFD261D3046FFF7D9FDE36A01229D
:102E70009A40D5F80C110A43C5F80C2105F1300031
:102E800003EB83039A0031461044FFF7A2FDE26A88
:102E9000D5F80031DB6A9A42DAD30122C5F828213D
:102EA000D6E70CB1FFF7CEFD114BD3F8244164B146
:102EB000FFF720FF18B10E4B0122C3F82821013C77
:102EC000F6D10B4B0022C3F82421094BD3F828314B
:102ED0005BB1084B4FF080521A60BFF34F8FBFF3C6
:102EE0006F8F0124AFE70024ADE70024ABE700BFFC
:102EF0002C00002004ED00E010B5C0B10446104BDA
:102F0000D3F8183153B14FF0500372B683F31188E0
:102F1000BFF36F8FBFF34F8F62B6FEE7FFF7E0FEA0
:102F200000212046FFF762FEFFF76CFF38B9054B22
:102F30004FF080521A60BFF34F8FBFF36F8F10BDF9
:102F40002C00002004ED00E0234BD3F8183123B10E
:102F5000214B0122C3F8282170471F4A0023C2F8E1
:102F60002831D2F80C31B3FA83F3DBB2C3F11F037B
:102F700003EB830081000A44126B52B94FF05003F7
:102F800072B683F31188BFF36F8FBFF34F8F62B6B2
:102F9000FEE710B4104A9900CC18A0001044446B0E
:102FA0006468446330321944880008300244944213
:102FB0000BD0094903EB83039A000A44536BDB6887
:102FC000C1F800315DF8044B704761680248142273
:102FD00002FB03025163ECE72C000020064BD3F800
:102FE00004313BB1044BD3F818310BB100207047CA
:102FF00002207047012070472C0000200D4B1B68F9
:10300000B3F1FF3F0AD04FF0500372B683F311883B
:10301000BFF36F8FBFF34F8F62B6FEE74FF05003E1
:1030200072B683F31188BFF36F8FBFF34F8F62B611
:10303000FEE700BF0C0000204FF0807340F8043C16
:1030400021F0010140F8081C054B40F80C3C40F809
:10305000202C6FF0020340F8243C4438704700BF36
:10306000FD2F00080000000000000000000000002C
:10307000074B19680868B0E8F04F80F30988BFF380
:103080006F8F4FF0000080F311887047AFF300801E
:103090002C0100204FF0500372B683F31188BFF368
:1030A0006F8FBFF34F8F62B60B4A13680133136003
:1030B000012B00D07047094B1B6813F0FF0FF9D0AC
:1030C0004FF0500372B683F31188BFF36F8FBFF3D5
:1030D0004F8F62B6FEE700BF0C00002004ED00E059
:1030E0000A4B1B6853B94FF0500372B683F3118833
:1030F000BFF36F8FBFF34F8F62B6FEE7013B034A0A
:1031000013600BB983F31188704700BF0C000020D7
:10311000EFF30980BFF36F8F154B1A681EF0100F85
:1031200008BF20ED108A20E9F04F10604DF8043DF3
:103130004FF0500072B680F31188BFF34F8FBFF38A
:103140006F8F62B6FFF700FF4FF0000080F3118829
:1031500008BC19680868B0E8F04F1EF0100F08BFEF
:10316000B0EC108A80F30988BFF36F8F704700BFFF
:103170002C01002008B54FF0500372B683F311887C
:10318000BFF36F8FBFF34F8F62B6FFF7B3FD18B178
:10319000034B4FF080521A60002383F3118808BD5F
:1031A00004ED00E0104A12F0070F1AD0D11D21F0F3
:1031B0000701C1F5705313440A460C490A60002008
:1031C00048601344083B23F007038B605860186085
:1031D000981A50601360C86008614FF000434B615B
:1031E00070474FF47053E8E7700100205801002049
:1031F00010B4134B1A6882421BD359685C1884427E
:1032000003D1406801445960184641684418A242FD
:1032100013D10B4CA468A2420DD0526811444160F6
:103220001A6812680260984200D018605DF8044B7A
:1032300070471346DEE70460F5E70260F3E700BF7E
:103240005801002070B50446FFF74AFD3C4B9B68CF
:10325000CBB13B4B5B691C4268D1BCB1083414F064
:10326000070F13D024F00704083404F007036BB1F0
:103270004FF0500372B683F31188BFF36F8FBFF323
:103280004F8F62B6FEE7FFF78DFFE2E7002C4FD0CD
:103290002B4B1B69A3424DD3294B1D6801E02B46E4
:1032A00015466A68A24202D22A68002AF7D1244A47
:1032B0009268AA4240D01E6808362A681A606B6875
:1032C0001B1B102B12D9281910F0070F0AD04FF032
:1032D000500372B683F31188BFF36F8FBFF34F8F24
:1032E00062B6FEE743606C60FFF782FF6968144ACC
:1032F00013695B1A1361D268934201D2104AD360FA
:103300000F4B5B690B436B6000232B60FFF77AFD6B
:1033100016F0070F12D04FF0500372B683F31188E6
:10332000BFF36F8FBFF34F8F62B6FEE70026EDE766
:103330000026EBE70026E9E70026E7E7304670BD08
:1033400058010020002834D038B50446A0F1080503
:1033500050F8042C174949690A420AD14FF050032A
:1033600072B683F31188BFF36F8FBFF34F8F62B6CE
:10337000FEE750F8080C50B14FF0500372B683F3DB
:103380001188BFF36F8FBFF34F8F62B6FEE722EA5B
:10339000010244F8042CFFF7A3FC54F8041C054A6E
:1033A00013690B4413612846FFF722FFFFF72AFD3C
:1033B00038BD704758010020DFF834D0002103E009
:1033C0000C4B5B58435004310B480C4B42189A424B
:1033D000F6D30B4A02E0002342F8043B094B9A4221
:1033E000F9D3FDF7C9FA00F011F8FDF743FA704779
:1033F0000000082008350008000000201000002010
:103400001000002030420020FEE7000070B50D4E95
:103410000D4CA41BA4100025A54209D10B4E0C4C49
:1034200000F018F8A41BA4100025A54205D170BD1A
:1034300056F8253098470135EEE756F8253098477D
:103440000135F2E7003500080035000800350008B6
:1034500004350008F8B500BFF8BC08BC9E467047AC
:0C346000F8B500BFF8BC08BC9E467047E1
:10346C00AC3400085D0600080000000000000000FD
:10347C0080000000000000000000000001020304B6
:10348C000607080900000000010203042E2E2F433A
:10349C006F72652F5372632F6574682E6300000082
:1034AC0064656661756C745461736B002E2E2F43CA
:1034BC006F72652F5372632F6D61696E2E630000FE
:1034CC002E2E2F436F72652F5372632F757361729B
:1034DC00742E63002E2E2F436F72652F5372632F41
:0C34EC007573625F6F74672E6300000050
:0834F80078CDFF7F0100000008
:043500002502000898
:0435040001020008B8
:103508000024F4000100000010000000AAAAAAAAE2
:04000005080033B903
:00000001FF
